{
  "_format": "hh-sol-artifact-1",
  "contractName": "Challenge",
  "sourceName": "contracts/Challenge.sol",
  "abi": [
    {
      "inputs": [],
      "stateMutability": "nonpayable",
      "type": "constructor"
    },
    {
      "inputs": [
        {
          "internalType": "address",
          "name": "target",
          "type": "address"
        }
      ],
      "name": "AddressEmptyCode",
      "type": "error"
    },
    {
      "inputs": [],
      "name": "BettorAlreadyInWhitelist",
      "type": "error"
    },
    {
      "inputs": [],
      "name": "BettorCannotUpdateBet",
      "type": "error"
    },
    {
      "inputs": [],
      "name": "BettorNotInWhitelist",
      "type": "error"
    },
    {
      "inputs": [
        {
          "internalType": "uint256",
          "name": "challengeId",
          "type": "uint256"
        },
        {
          "internalType": "address",
          "name": "caller",
          "type": "address"
        },
        {
          "internalType": "address",
          "name": "challenger",
          "type": "address"
        }
      ],
      "name": "ChallengeCanOnlyBeModifiedByChallenger",
      "type": "error"
    },
    {
      "inputs": [],
      "name": "ChallengeCannotBeModified",
      "type": "error"
    },
    {
      "inputs": [
        {
          "internalType": "uint256",
          "name": "activeChallengeId",
          "type": "uint256"
        }
      ],
      "name": "ChallengeIsActive",
      "type": "error"
    },
    {
      "inputs": [
        {
          "internalType": "uint256",
          "name": "challengeId",
          "type": "uint256"
        }
      ],
      "name": "ChallengeIsExpired",
      "type": "error"
    },
    {
      "inputs": [
        {
          "internalType": "uint256",
          "name": "challengeId",
          "type": "uint256"
        },
        {
          "internalType": "uint8",
          "name": "challengeStatus",
          "type": "uint8"
        }
      ],
      "name": "ChallengeIsNotActive",
      "type": "error"
    },
    {
      "inputs": [],
      "name": "ChallengeLengthTooLong",
      "type": "error"
    },
    {
      "inputs": [],
      "name": "ChallengerAlreadyInWhitelist",
      "type": "error"
    },
    {
      "inputs": [],
      "name": "ChallengerCannotBetAgainstHimself",
      "type": "error"
    },
    {
      "inputs": [],
      "name": "ChallengerNotInWhitelist",
      "type": "error"
    },
    {
      "inputs": [
        {
          "internalType": "address",
          "name": "implementation",
          "type": "address"
        }
      ],
      "name": "ERC1967InvalidImplementation",
      "type": "error"
    },
    {
      "inputs": [],
      "name": "ERC1967NonPayable",
      "type": "error"
    },
    {
      "inputs": [],
      "name": "EnforcedPause",
      "type": "error"
    },
    {
      "inputs": [],
      "name": "ExpectedPause",
      "type": "error"
    },
    {
      "inputs": [],
      "name": "FailedCall",
      "type": "error"
    },
    {
      "inputs": [],
      "name": "InvalidInitialization",
      "type": "error"
    },
    {
      "inputs": [],
      "name": "MalformedChallengeMetricsProvided",
      "type": "error"
    },
    {
      "inputs": [],
      "name": "MinimumBetAmountTooSmall",
      "type": "error"
    },
    {
      "inputs": [],
      "name": "NobodyBettingAgainstChallenger",
      "type": "error"
    },
    {
      "inputs": [],
      "name": "NobodyBettingForChallenger",
      "type": "error"
    },
    {
      "inputs": [],
      "name": "NotInitializing",
      "type": "error"
    },
    {
      "inputs": [],
      "name": "OnlyChallengerCanStartChallenge",
      "type": "error"
    },
    {
      "inputs": [
        {
          "internalType": "address",
          "name": "owner",
          "type": "address"
        }
      ],
      "name": "OwnableInvalidOwner",
      "type": "error"
    },
    {
      "inputs": [
        {
          "internalType": "address",
          "name": "account",
          "type": "address"
        }
      ],
      "name": "OwnableUnauthorizedAccount",
      "type": "error"
    },
    {
      "inputs": [],
      "name": "ReentrancyGuardReentrantCall",
      "type": "error"
    },
    {
      "inputs": [],
      "name": "TooManyBettors",
      "type": "error"
    },
    {
      "inputs": [],
      "name": "TooManyChallengeMetrics",
      "type": "error"
    },
    {
      "inputs": [],
      "name": "UUPSUnauthorizedCallContext",
      "type": "error"
    },
    {
      "inputs": [
        {
          "internalType": "bytes32",
          "name": "slot",
          "type": "bytes32"
        }
      ],
      "name": "UUPSUnsupportedProxiableUUID",
      "type": "error"
    },
    {
      "inputs": [],
      "name": "VaultNotSet",
      "type": "error"
    },
    {
      "inputs": [
        {
          "internalType": "uint256",
          "name": "challengeId",
          "type": "uint256"
        }
      ],
      "name": "WinningsAlreadyPaid",
      "type": "error"
    },
    {
      "anonymous": false,
      "inputs": [
        {
          "indexed": false,
          "internalType": "uint256",
          "name": "challengeId",
          "type": "uint256"
        },
        {
          "indexed": false,
          "internalType": "address",
          "name": "bettor",
          "type": "address"
        },
        {
          "indexed": false,
          "internalType": "bool",
          "name": "bettingForChallenger",
          "type": "bool"
        },
        {
          "indexed": false,
          "internalType": "uint256",
          "name": "betAmount",
          "type": "uint256"
        }
      ],
      "name": "BetPlaced",
      "type": "event"
    },
    {
      "anonymous": false,
      "inputs": [
        {
          "indexed": true,
          "internalType": "address",
          "name": "bettor",
          "type": "address"
        }
      ],
      "name": "BettorJoined",
      "type": "event"
    },
    {
      "anonymous": false,
      "inputs": [
        {
          "indexed": true,
          "internalType": "address",
          "name": "challenger",
          "type": "address"
        },
        {
          "indexed": true,
          "internalType": "uint256",
          "name": "challengeId",
          "type": "uint256"
        },
        {
          "indexed": false,
          "internalType": "uint256",
          "name": "lengthOfChallenge",
          "type": "uint256"
        },
        {
          "indexed": false,
          "internalType": "uint8[]",
          "name": "challengeMetrics",
          "type": "uint8[]"
        },
        {
          "indexed": false,
          "internalType": "uint256[]",
          "name": "targetMeasurementsForEachMetric",
          "type": "uint256[]"
        }
      ],
      "name": "ChallengeCreated",
      "type": "event"
    },
    {
      "anonymous": false,
      "inputs": [
        {
          "indexed": true,
          "internalType": "address",
          "name": "challenger",
          "type": "address"
        },
        {
          "indexed": true,
          "internalType": "uint256",
          "name": "challengeId",
          "type": "uint256"
        }
      ],
      "name": "ChallengeStarted",
      "type": "event"
    },
    {
      "anonymous": false,
      "inputs": [
        {
          "indexed": true,
          "internalType": "address",
          "name": "challenger",
          "type": "address"
        }
      ],
      "name": "ChallengerJoined",
      "type": "event"
    },
    {
      "anonymous": false,
      "inputs": [
        {
          "indexed": true,
          "internalType": "address",
          "name": "challenger",
          "type": "address"
        }
      ],
      "name": "ChallengerRemoved",
      "type": "event"
    },
    {
      "anonymous": false,
      "inputs": [
        {
          "indexed": true,
          "internalType": "address",
          "name": "bettor",
          "type": "address"
        },
        {
          "indexed": false,
          "internalType": "uint256",
          "name": "gasUsed",
          "type": "uint256"
        }
      ],
      "name": "GasUsed",
      "type": "event"
    },
    {
      "anonymous": false,
      "inputs": [
        {
          "indexed": false,
          "internalType": "uint64",
          "name": "version",
          "type": "uint64"
        }
      ],
      "name": "Initialized",
      "type": "event"
    },
    {
      "anonymous": false,
      "inputs": [
        {
          "indexed": false,
          "internalType": "uint256",
          "name": "oldValue",
          "type": "uint256"
        },
        {
          "indexed": false,
          "internalType": "uint256",
          "name": "newValue",
          "type": "uint256"
        }
      ],
      "name": "MinimumBetValueSet",
      "type": "event"
    },
    {
      "anonymous": false,
      "inputs": [
        {
          "indexed": true,
          "internalType": "address",
          "name": "previousOwner",
          "type": "address"
        },
        {
          "indexed": true,
          "internalType": "address",
          "name": "newOwner",
          "type": "address"
        }
      ],
      "name": "OwnershipTransferred",
      "type": "event"
    },
    {
      "anonymous": false,
      "inputs": [
        {
          "indexed": false,
          "internalType": "address",
          "name": "account",
          "type": "address"
        }
      ],
      "name": "Paused",
      "type": "event"
    },
    {
      "anonymous": false,
      "inputs": [
        {
          "indexed": false,
          "internalType": "address",
          "name": "account",
          "type": "address"
        }
      ],
      "name": "Unpaused",
      "type": "event"
    },
    {
      "anonymous": false,
      "inputs": [
        {
          "indexed": true,
          "internalType": "address",
          "name": "implementation",
          "type": "address"
        }
      ],
      "name": "Upgraded",
      "type": "event"
    },
    {
      "anonymous": false,
      "inputs": [
        {
          "indexed": false,
          "internalType": "uint256",
          "name": "challengeId",
          "type": "uint256"
        },
        {
          "indexed": false,
          "internalType": "address",
          "name": "bettor",
          "type": "address"
        },
        {
          "indexed": false,
          "internalType": "uint256",
          "name": "share",
          "type": "uint256"
        }
      ],
      "name": "WinningsDistributed",
      "type": "event"
    },
    {
      "inputs": [],
      "name": "UPGRADE_INTERFACE_VERSION",
      "outputs": [
        {
          "internalType": "string",
          "name": "",
          "type": "string"
        }
      ],
      "stateMutability": "view",
      "type": "function"
    },
    {
      "inputs": [
        {
          "internalType": "address",
          "name": "bettor",
          "type": "address"
        }
      ],
      "name": "addNewBettor",
      "outputs": [],
      "stateMutability": "nonpayable",
      "type": "function"
    },
    {
      "inputs": [
        {
          "internalType": "address",
          "name": "challenger",
          "type": "address"
        }
      ],
      "name": "addNewChallenger",
      "outputs": [],
      "stateMutability": "nonpayable",
      "type": "function"
    },
    {
      "inputs": [
        {
          "internalType": "address",
          "name": "",
          "type": "address"
        }
      ],
      "name": "bettorWhitelist",
      "outputs": [
        {
          "internalType": "bool",
          "name": "",
          "type": "bool"
        }
      ],
      "stateMutability": "view",
      "type": "function"
    },
    {
      "inputs": [
        {
          "internalType": "uint256",
          "name": "",
          "type": "uint256"
        },
        {
          "internalType": "address",
          "name": "",
          "type": "address"
        }
      ],
      "name": "challengeToBetsAgainst",
      "outputs": [
        {
          "internalType": "uint256",
          "name": "",
          "type": "uint256"
        }
      ],
      "stateMutability": "view",
      "type": "function"
    },
    {
      "inputs": [
        {
          "internalType": "uint256",
          "name": "",
          "type": "uint256"
        },
        {
          "internalType": "address",
          "name": "",
          "type": "address"
        }
      ],
      "name": "challengeToBetsFor",
      "outputs": [
        {
          "internalType": "uint256",
          "name": "",
          "type": "uint256"
        }
      ],
      "stateMutability": "view",
      "type": "function"
    },
    {
      "inputs": [
        {
          "internalType": "uint256",
          "name": "",
          "type": "uint256"
        },
        {
          "internalType": "uint256",
          "name": "",
          "type": "uint256"
        }
      ],
      "name": "challengeToBettors",
      "outputs": [
        {
          "internalType": "address",
          "name": "",
          "type": "address"
        }
      ],
      "stateMutability": "view",
      "type": "function"
    },
    {
      "inputs": [
        {
          "internalType": "uint256",
          "name": "",
          "type": "uint256"
        }
      ],
      "name": "challengeToChallengeLength",
      "outputs": [
        {
          "internalType": "uint256",
          "name": "",
          "type": "uint256"
        }
      ],
      "stateMutability": "view",
      "type": "function"
    },
    {
      "inputs": [
        {
          "internalType": "uint256",
          "name": "",
          "type": "uint256"
        }
      ],
      "name": "challengeToChallengeStatus",
      "outputs": [
        {
          "internalType": "uint8",
          "name": "",
          "type": "uint8"
        }
      ],
      "stateMutability": "view",
      "type": "function"
    },
    {
      "inputs": [
        {
          "internalType": "uint256",
          "name": "",
          "type": "uint256"
        }
      ],
      "name": "challengeToChallenger",
      "outputs": [
        {
          "internalType": "address",
          "name": "",
          "type": "address"
        }
      ],
      "stateMutability": "view",
      "type": "function"
    },
    {
      "inputs": [
        {
          "internalType": "uint256",
          "name": "",
          "type": "uint256"
        }
      ],
      "name": "challengeToNumberOfBettorsAgainst",
      "outputs": [
        {
          "internalType": "uint256",
          "name": "",
          "type": "uint256"
        }
      ],
      "stateMutability": "view",
      "type": "function"
    },
    {
      "inputs": [
        {
          "internalType": "uint256",
          "name": "",
          "type": "uint256"
        }
      ],
      "name": "challengeToNumberOfBettorsFor",
      "outputs": [
        {
          "internalType": "uint256",
          "name": "",
          "type": "uint256"
        }
      ],
      "stateMutability": "view",
      "type": "function"
    },
    {
      "inputs": [
        {
          "internalType": "uint256",
          "name": "",
          "type": "uint256"
        }
      ],
      "name": "challengeToStartTime",
      "outputs": [
        {
          "internalType": "uint256",
          "name": "",
          "type": "uint256"
        }
      ],
      "stateMutability": "view",
      "type": "function"
    },
    {
      "inputs": [
        {
          "internalType": "uint256",
          "name": "",
          "type": "uint256"
        }
      ],
      "name": "challengeToTotalAmountBetAgainst",
      "outputs": [
        {
          "internalType": "uint256",
          "name": "",
          "type": "uint256"
        }
      ],
      "stateMutability": "view",
      "type": "function"
    },
    {
      "inputs": [
        {
          "internalType": "uint256",
          "name": "",
          "type": "uint256"
        }
      ],
      "name": "challengeToTotalAmountBetFor",
      "outputs": [
        {
          "internalType": "uint256",
          "name": "",
          "type": "uint256"
        }
      ],
      "stateMutability": "view",
      "type": "function"
    },
    {
      "inputs": [
        {
          "internalType": "uint256",
          "name": "",
          "type": "uint256"
        }
      ],
      "name": "challengeToWinningsPaid",
      "outputs": [
        {
          "internalType": "uint8",
          "name": "",
          "type": "uint8"
        }
      ],
      "stateMutability": "view",
      "type": "function"
    },
    {
      "inputs": [
        {
          "internalType": "address",
          "name": "",
          "type": "address"
        }
      ],
      "name": "challengerToActiveChallenge",
      "outputs": [
        {
          "internalType": "uint256",
          "name": "",
          "type": "uint256"
        }
      ],
      "stateMutability": "view",
      "type": "function"
    },
    {
      "inputs": [
        {
          "internalType": "address",
          "name": "",
          "type": "address"
        }
      ],
      "name": "challengerWhitelist",
      "outputs": [
        {
          "internalType": "bool",
          "name": "",
          "type": "bool"
        }
      ],
      "stateMutability": "view",
      "type": "function"
    },
    {
      "inputs": [
        {
          "internalType": "uint256",
          "name": "_challengeId",
          "type": "uint256"
        },
        {
          "internalType": "bool",
          "name": "_bettingFor",
          "type": "bool"
        }
      ],
      "name": "changeBet",
      "outputs": [],
      "stateMutability": "payable",
      "type": "function"
    },
    {
      "inputs": [
        {
          "internalType": "uint256",
          "name": "_newMinimumValue",
          "type": "uint256"
        }
      ],
      "name": "changeMinimumBetValue",
      "outputs": [],
      "stateMutability": "nonpayable",
      "type": "function"
    },
    {
      "inputs": [
        {
          "internalType": "uint256",
          "name": "_lengthOfChallenge",
          "type": "uint256"
        },
        {
          "internalType": "uint8[]",
          "name": "_challengeMetrics",
          "type": "uint8[]"
        },
        {
          "internalType": "uint256[]",
          "name": "_targetMeasurementsForEachMetric",
          "type": "uint256[]"
        }
      ],
      "name": "createChallenge",
      "outputs": [
        {
          "internalType": "uint256",
          "name": "",
          "type": "uint256"
        }
      ],
      "stateMutability": "nonpayable",
      "type": "function"
    },
    {
      "inputs": [
        {
          "internalType": "uint256",
          "name": "_challengeId",
          "type": "uint256"
        }
      ],
      "name": "distributeWinnings",
      "outputs": [],
      "stateMutability": "nonpayable",
      "type": "function"
    },
    {
      "inputs": [
        {
          "internalType": "address",
          "name": "challenger",
          "type": "address"
        }
      ],
      "name": "getChallengesForChallenger",
      "outputs": [
        {
          "internalType": "uint256[]",
          "name": "",
          "type": "uint256[]"
        }
      ],
      "stateMutability": "view",
      "type": "function"
    },
    {
      "inputs": [],
      "name": "getLatestPrice",
      "outputs": [
        {
          "internalType": "uint256",
          "name": "",
          "type": "uint256"
        }
      ],
      "stateMutability": "view",
      "type": "function"
    },
    {
      "inputs": [
        {
          "internalType": "uint256",
          "name": "_minimumBetValue",
          "type": "uint256"
        },
        {
          "internalType": "address",
          "name": "_dataFeedAddress",
          "type": "address"
        },
        {
          "internalType": "uint32",
          "name": "_maximumNumberOfBettorsPerChallenge",
          "type": "uint32"
        },
        {
          "internalType": "uint32",
          "name": "_maximumChallengeLengthInSeconds",
          "type": "uint32"
        },
        {
          "internalType": "uint8",
          "name": "_maximumNumberOfChallengeMetrics",
          "type": "uint8"
        }
      ],
      "name": "initialize",
      "outputs": [],
      "stateMutability": "nonpayable",
      "type": "function"
    },
    {
      "inputs": [],
      "name": "latestChallengeId",
      "outputs": [
        {
          "internalType": "uint256",
          "name": "",
          "type": "uint256"
        }
      ],
      "stateMutability": "view",
      "type": "function"
    },
    {
      "inputs": [],
      "name": "owner",
      "outputs": [
        {
          "internalType": "address",
          "name": "",
          "type": "address"
        }
      ],
      "stateMutability": "view",
      "type": "function"
    },
    {
      "inputs": [],
      "name": "pause",
      "outputs": [],
      "stateMutability": "nonpayable",
      "type": "function"
    },
    {
      "inputs": [],
      "name": "paused",
      "outputs": [
        {
          "internalType": "bool",
          "name": "",
          "type": "bool"
        }
      ],
      "stateMutability": "view",
      "type": "function"
    },
    {
      "inputs": [
        {
          "internalType": "uint256",
          "name": "_challengeId",
          "type": "uint256"
        },
        {
          "internalType": "bool",
          "name": "_bettingFor",
          "type": "bool"
        }
      ],
      "name": "placeBet",
      "outputs": [],
      "stateMutability": "payable",
      "type": "function"
    },
    {
      "inputs": [],
      "name": "proxiableUUID",
      "outputs": [
        {
          "internalType": "bytes32",
          "name": "",
          "type": "bytes32"
        }
      ],
      "stateMutability": "view",
      "type": "function"
    },
    {
      "inputs": [
        {
          "internalType": "address",
          "name": "challenger",
          "type": "address"
        }
      ],
      "name": "removeChallenger",
      "outputs": [],
      "stateMutability": "nonpayable",
      "type": "function"
    },
    {
      "inputs": [],
      "name": "renounceOwnership",
      "outputs": [],
      "stateMutability": "nonpayable",
      "type": "function"
    },
    {
      "inputs": [
        {
          "internalType": "uint32",
          "name": "_maximumNumberOfBettorsPerChallenge",
          "type": "uint32"
        }
      ],
      "name": "setMaximumNumberOfBettorsPerChallenge",
      "outputs": [],
      "stateMutability": "nonpayable",
      "type": "function"
    },
    {
      "inputs": [
        {
          "internalType": "address",
          "name": "_vault",
          "type": "address"
        }
      ],
      "name": "setVault",
      "outputs": [],
      "stateMutability": "nonpayable",
      "type": "function"
    },
    {
      "inputs": [
        {
          "internalType": "uint256",
          "name": "_challengeId",
          "type": "uint256"
        }
      ],
      "name": "startChallenge",
      "outputs": [],
      "stateMutability": "nonpayable",
      "type": "function"
    },
    {
      "inputs": [
        {
          "internalType": "uint256",
          "name": "_challengeId",
          "type": "uint256"
        },
        {
          "internalType": "uint256[]",
          "name": "_submittedMeasurements",
          "type": "uint256[]"
        }
      ],
      "name": "submitMeasurements",
      "outputs": [],
      "stateMutability": "nonpayable",
      "type": "function"
    },
    {
      "inputs": [
        {
          "internalType": "address",
          "name": "newOwner",
          "type": "address"
        }
      ],
      "name": "transferOwnership",
      "outputs": [],
      "stateMutability": "nonpayable",
      "type": "function"
    },
    {
      "inputs": [],
      "name": "unpause",
      "outputs": [],
      "stateMutability": "nonpayable",
      "type": "function"
    },
    {
      "inputs": [
        {
          "internalType": "address",
          "name": "newImplementation",
          "type": "address"
        },
        {
          "internalType": "bytes",
          "name": "data",
          "type": "bytes"
        }
      ],
      "name": "upgradeToAndCall",
      "outputs": [],
      "stateMutability": "payable",
      "type": "function"
    }
  ],
  "bytecode": "0x60a0604052346200003657620000146200003b565b604051612fb2620001ec8239608051818181612a7b0152612bfe0152612fb290f35b600080fd5b6200004562000051565b6200004f62000134565b565b6200004f6200004f6200004f6200004f620000a2565b6200007d9062000080906001600160a01b031682565b90565b6001600160a01b031690565b6200007d9062000067565b6200007d906200008c565b620000ad3062000097565b608052565b6200007d9060401c60ff1690565b6200007d9054620000b2565b6200007d905b6001600160401b031690565b6200007d9054620000cc565b6200007d90620000d2906001600160401b031682565b90620001146200007d6200013092620000ea565b82546001600160401b0319166001600160401b03919091161790565b9055565b7ff0c57e16840df040f15088dc2f81fe391c3923bec73e23a9662efc9c229c6a006200016081620000c0565b620001d9576200017081620000de565b6001600160401b039190829081160362000188575050565b81620001ba7fc7f505b2f371ae2175ee4913f4499e1f2633a7b5936321eed1cdaeb6115181d293620001d49362000100565b604051918291826001600160401b03909116815260200190565b0390a1565b60405163f92ee8a960e01b8152600490fdfe6080604052600436101561001257600080fd5b60003560e01c806302a4a84b146102925780630bbc689c1461028d5780630f248ace146102885780631ac826de14610283578063222474171461027e57806324f6626f1461027957806331a2847314610274578063349f96bc1461026f5780633f4ba83a1461026a57806343f1f6d11461026557806344239436146102605780634544c48c1461025b5780634f1ef2861461025657806352d1902d1461025157806354f1a0f51461024c578063559406ee1461024757806356582770146102425780635c975abb1461023d5780635f772764146102385780636817031b146102335780636ad4e87a1461022e5780636c578c1d14610229578063715018a6146102245780638045d63e1461021f5780638456cb591461021a5780638da5cb5b146102155780638e15f4731461021057806397179f701461020b5780639ed9c74d14610206578063ad3cb1cc14610201578063b03d29d2146101fc578063b3b939b6146101f7578063bf26931f146101f2578063c4ff8946146101ed578063c5ec6381146101e8578063d15993d7146101e3578063d7b17224146101de578063edb8aa9b146101d9578063eec8ba21146101d45763f2fde38b036102a057610d5c565b610d41565b610d19565b610cfe565b610cd2565b610c23565b610ba8565b610b8d565b610b69565b610b4e565b610b17565b610a56565b610a06565b6109d7565b6109bc565b6109a4565b610988565b61095c565b610944565b61092c565b610914565b6108f9565b6108ce565b6108b6565b61089b565b610870565b610845565b610831565b61071e565b610702565b61066c565b610644565b61060c565b6105cd565b61059f565b610543565b6104ce565b610480565b6103de565b610389565b805b036102a057565b600080fd5b905035906102b282610297565b565b6001600160a01b031690565b90565b610299816102b4565b905035906102b2826102c3565b91906040838203126102a0576102c09060206102f582866102a5565b94016102cc565b6102c06102c06102c09290565b90610313906102fc565b600052602052604060002090565b6102c0906102b4906001600160a01b031682565b6102c090610321565b6102c090610335565b906103139061033e565b6102c0916008021c81565b906102c09154610351565b6103806102c09261037b6000936015610309565b610347565b61035c565b9052565b346102a0576103b66103a561039f3660046102d9565b90610367565b6040515b9182918290815260200190565b0390f35b906020828203126102a0576102c0916102a5565b60006103806102c0926011610309565b346102a0576103b66103a56103f43660046103ba565b6103ce565b909182601f830112156102a0578135916001600160401b0383116102a05760200192602083028401116102a057565b6060818303126102a05761043c82826102a5565b9260208201356001600160401b0381116102a0578361045c9184016103f9565b92909360408201356001600160401b0381116102a05761047c92016103f9565b9091565b346102a0576103b66103a5610496366004610428565b9392909261127f565b6102c0916008021c5b60ff1690565b906102c0915461049f565b60006104c96102c0926010610309565b6104ae565b346102a0576103b66104e96104e43660046103ba565b6104b9565b6040519182918260ff909116815260200190565b6102c0916008021c6102b4565b906102c091546104fd565b60006105256102c0926009610309565b61050a565b610385906102b4565b6020810192916102b2919061052a565b346102a0576103b661055e6105593660046103ba565b610515565b60405191829182610533565b9190916040818403126102a05761058183826102a5565b9260208201356001600160401b0381116102a05761047c92016103f9565b346102a0576105b86105b236600461056a565b91611501565b604051005b60006103806102c0926012610309565b346102a0576103b66103a56105e33660046103ba565b6105bd565b906020828203126102a0576102c0916102cc565b60006104c96102c0926005610347565b346102a0576103b66106276106223660046105e8565b6105fc565b60405191829182901515815260200190565b60009103126102a057565b346102a057610654366004610639565b6105b861151f565b60006103806102c0926014610309565b346102a0576103b66103a56106823660046103ba565b61065c565b63ffffffff8116610299565b905035906102b282610687565b60ff8116610299565b905035906102b2826106a0565b919060a0838203126102a0576106cc81846102a5565b926106da82602083016102cc565b926102c06106eb8460408501610693565b9360806106fb8260608701610693565b94016106a9565b346102a0576105b86107153660046106b6565b93929092611880565b346102a0576105b86107313660046103ba565b611e39565b634e487b7160e01b600052604160045260246000fd5b90601f01601f191681019081106001600160401b0382111761076d57604052565b610736565b906102b261077f60405190565b928361074c565b6001600160401b03811161076d57602090601f01601f19160190565b0190565b90826000939282370152565b909291926107c76107c282610786565b610772565b93818552818301116102a0576102b29160208501906107a6565b9080601f830112156102a0578160206102c0933591016107b2565b9190916040818403126102a05761081383826102cc565b9260208201356001600160401b0381116102a0576102c092016107e1565b6105b861083f3660046107fc565b90611e62565b346102a057610855366004610639565b6103b66103a5611eaf565b60006103806102c092600f610309565b346102a0576103b66103a56108863660046103ba565b610860565b60006104c96102c092600a610309565b346102a0576103b66104e96108b13660046103ba565b61088b565b346102a0576105b86108c93660046105e8565b611f95565b346102a0576108de366004610639565b6103b6610627611f9e565b60006104c96102c0926004610347565b346102a0576103b661062761090f3660046105e8565b6108e9565b346102a0576105b86109273660046105e8565b611feb565b346102a0576105b861093f3660046103ba565b612109565b346102a0576105b86109573660046105e8565b612192565b346102a05761096c366004610639565b6105b86121b8565b6103806102c09261037b6000936016610309565b346102a0576103b66103a561099e3660046102d9565b90610974565b346102a0576109b4366004610639565b6105b86121d3565b346102a0576109cc366004610639565b6103b661055e6121db565b346102a0576109e7366004610639565b6103b66103a5612280565b906020828203126102a0576102c091610693565b346102a0576105b8610a193660046109f2565b612324565b801515610299565b905035906102b282610a1e565b91906040838203126102a0576102c0906020610a4f82866102a5565b9401610a26565b6105b8610a64366004610a33565b906126b5565b90610a776107c283610786565b918252565b610a866005610a6a565b640352e302e360dc1b602082015290565b6102c0610a7c565b6102c0610a97565b6102c0610a9f565b60005b838110610ac25750506000910152565b8181015183820152602001610ab2565b610af3610afc6020936107a293610ae7815190565b80835293849260200190565b95869101610aaf565b601f01601f191690565b60208082526102c092910190610ad2565b346102a057610b27366004610639565b6103b6610b32610aa7565b60405191829182610b06565b60006103806102c0926013610309565b346102a0576103b66103a5610b643660046103ba565b610b3e565b346102a0576105b8610b7c3660046105e8565b61272d565b6102c06000600861035c565b346102a057610b9d366004610639565b6103b66103a5610b81565b6105b8610bb6366004610a33565b906127b2565b90610bdc610bd5610bcb845190565b8084529260200190565b9260200190565b9060005b818110610bed5750505090565b909192610c0a610c036001928651815260200190565b9460200190565b929101610be0565b60208082526102c092910190610bbc565b346102a0576103b6610c3e610c393660046105e8565b61282e565b60405191829182610c12565b91906040838203126102a0576102c0906020610c6682866102a5565b94016102a5565b634e487b7160e01b600052603260045260246000fd5b8054821015610ca657610c9d600191600052602060002090565b91020190600090565b610c6d565b610cb6906017610309565b80548210156102a0576102c091610ccc91610c83565b9061050a565b346102a0576103b661055e610ce8366004610c4a565b90610cab565b60006103806102c092600e610309565b346102a0576103b66103a5610d143660046103ba565b610cee565b346102a0576105b8610d2c3660046103ba565b612871565b60006103806102c0926007610347565b346102a0576103b66103a5610d573660046105e8565b610d31565b346102a0576105b8610d6f3660046105e8565b6128d4565b90610d8a9594939291610d856128e7565b610da6565b906102b2612945565b6102c0906104a8565b6102c09054610d93565b9493929190610dc5610dc1610dbc336004610347565b610d9c565b1590565b610dd2576102c0956110ac565b60405163315176d960e01b8152600490fd5b0390fd5b6102c09060201c5b63ffffffff1690565b6102c09054610de8565b6102c06102c06102c09263ffffffff1690565b6102c09060401c6104a8565b6102c09054610e16565b6102c06102c06102c09260ff1690565b6102c09081565b6102c09054610e3c565b90600019905b9181191691161790565b90610e6d6102c0610e74926102fc565b8254610e4d565b9055565b906001600160a01b0390610e53565b90610e976102c0610e749261033e565b8254610e78565b9160001960089290920291821b911b610e53565b921b90565b9190610ec86102c0610e74936102fc565b908354610e9e565b80549190600160401b83101561076d5782610ef39160016102b295018155610c83565b90610eb7565b9190811015610ca6576020020190565b356102c081610297565b356102c0816106a0565b6104a86102c06102c09260ff1690565b9061031390610f1d565b8054919291831015610ca6576020610f56600192600052602060002090565b8185040193060290565b91906008610e53910291610eb260ff841b90565b9190610f856102c0610e7493610f1d565b908354610f60565b80549190600160401b83101561076d5782610fb09160016102b295018155610f37565b90610f74565b6104a86102c06102c09290565b6102c06000610fb6565b9060ff90610e53565b90610fe66102c0610e7492610f1d565b8254610fcd565b506102c09060208101906106a9565b818352602090920191906000825b828210611018575050505090565b9091929361104161103a60019261102f8886610fed565b60ff16815260200190565b9560200190565b9392019061100a565b9037565b8183529091602001916001600160fb1b0381116102a057829160206107a2920293849161104a565b9391906102c0959361109e9261109160608801936000890152565b8683036020880152610ffc565b92604081850391015261104e565b9594919593909293506110c76110c26003610df9565b610e03565b831161126d57839482860361125c576110e86110e36003610e22565b610e2c565b861161124a576110f86008610e43565b9361111661110f6111096008610e43565b60010190565b6008610e5d565b61112b611124866009610309565b3390610e87565b6111428561113d6102c0336006610347565b610ed0565b61114c60006102fc565b875b8110156111c8576111c1816111098b6111bb6111a4848d61119e6102c08f8f8f61118261114e9e6111b49361118793610ef9565b610f09565b6111af8a6111a96111a48a8a61119e89600b610309565b94610ef9565b610f13565b90610f2d565b610e5d565b600d610309565b90610f8d565b905061114c565b509096919395506112447fcf5999e9970950aa0908a44762fc756cf6e1cc36e2e5b22c22fce2c6907cfd7593611203836111af8a600f610309565b61121e61120e610fc3565b6112198a6010610309565b610fd6565b6112273361033e565b95611231896102fc565b9761123b60405190565b95869586611076565b0390a390565b60405163646afc2d60e11b8152600490fd5b604051622bfe0560e21b8152600490fd5b6040516357f767d560e01b8152600490fd5b6102c094939291906000610d74565b91906112a1610dc1610dbc336004610347565b610dd2576102b292906112bc92916112b76128e7565b61133b565b6102b2612945565b6102c0906102b4565b6102c090546112c4565b9081526060810193926102b29290916040916112f8905b602083019061052a565b019061052a565b6102c06001610fb6565b634e487b7160e01b600052601160045260246000fd5b9190820180921161132c57565b611309565b6102c06002610fb6565b929161135061134b856009610309565b6112cd565b61136261135c336102b4565b916102b4565b036114cd57600d61137b61137786600d610309565b5490565b9382948590611389565b9190565b0361125c5760108661139e610dbc8284610309565b6113b36113ac6104a86112ff565b9160ff1690565b0361148f576102c06113d16113cc6113e593600e610309565b610e43565b6113df6113cc8b600f610309565b9061131f565b42101561145857506113f760006102fc565b855b81101561144f57611448816111096114266114206113f99561141b8d8a610309565b610f37565b906104ae565b6111af611437611182858b8d610ef9565b916114438d600c610309565b610f2d565b90506113f7565b50945050505050565b86611472610de4926112198361146c611331565b92610309565b60405163338f4ac960e11b81529182916004830190815260200190565b61149c610dbc8284610309565b90610de46114a960405190565b63742fc31560e11b81529283926004840190815260ff909116602082015260400190565b836114dc61134b826009610309565b90610de46114e960405190565b635ddd4a4160e01b81529283923390600485016112d7565b906102b2929161128e565b61151461297a565b6102b26102b2612a04565b6102b261150c565b6102c0905b6001600160401b031690565b6102c09054611527565b61152c6102c06102c09290565b906001600160401b0390610e53565b61152c6102c06102c0926001600160401b031690565b906115846102c0610e749261155e565b825461154f565b9060ff60401b9060401b610e53565b906115aa6102c0610e7492151590565b825461158b565b61038590611542565b6020810192916102b291906115b1565b9092907ff0c57e16840df040f15088dc2f81fe391c3923bec73e23a9662efc9c229c6a00948592611606611600610dc186610e22565b94611538565b9460009661161388611542565b6001600160401b0388161480611710575b6001976116406116338a611542565b916001600160401b031690565b1490816116ec575b155b90816116e3575b506116d15761167a94866116718a6116688b611542565b9c019b8c611574565b6116c2576117af565b61168357505050565b6116b16116bd927fc7f505b2f371ae2175ee4913f4499e1f2633a7b5936321eed1cdaeb6115181d29461159a565b604051918291826115ba565b0390a1565b6116cc888b61159a565b6117af565b60405163f92ee8a960e01b8152600490fd5b15905038611651565b905061164a6116fa3061033e565b3b6117076113858c6102fc565b14919050611648565b5085611624565b9063ffffffff90610e53565b610df06102c06102c09263ffffffff1690565b906117466102c0610e7492611723565b8254611717565b9067ffffffff000000009060201b610e53565b906117706102c0610e7492611723565b825461174d565b906115aa6102c0610e7492610f1d565b610385906102fc565b9160206102b29294936117ab60408201966000830190611787565b0152565b929390916000926117bf846102fc565b851461186e5761184261184d9361183b7feb08af283bfdcd5240048fa1c4f59daf37447a1d363818cd09d991de75b68a649861183461184796611800612a1f565b611808612a3a565b61181133612a57565b61181a336128d4565b611822612a68565b61182d8b6002610e5d565b6003611736565b6003611760565b6003611777565b61033e565b82610e87565b61185961110f826102fc565b6116bd61186560405190565b92839283611790565b6040516355ce598160e01b8152600490fd5b906102b2949392916115ca565b6102b29061189961297a565b611a2a565b6102b46102c06102c09290565b6102c09061189e565b9190820391821161132c57565b60016102c0910160ff1690565b906107a28160209361052a565b906118f66118ea610bcb845490565b92600052602060002090565b9060005b8181106119075750505090565b90919261192861192160019261191c876112cd565b6118ce565b9460010190565b9291016118fa565b906102c0916118db565b906102b26119549261194b60405190565b93848092611930565b038361074c565b6102c09061193a565b6102c06004610fb6565b6102c06003610fb6565b90611981825190565b811015610ca6576020809102010190565b6102c090516102b4565b8181029291811591840414171561132c57565b634e487b7160e01b600052601260045260246000fd5b81156119cf570490565b6119af565b6040906119fb6102b294969593966119f46060840198600085019061052a565b6020830152565b019015159052565b6040513d6000823e3d90fd5b9081526060810193926102b29290916040916117ab906112ee565b90611a3861184260016112cd565b91600092611a5061135c611a4b866118ab565b6102b4565b14611e2757611a776102c0611a696113cc84600e610309565b6113df6113cc85600f610309565b4210611e00575a92601093611a8f610dbc8487610309565b90611a98611331565b91611aa560ff84166113ac565b03611da5575b5050611abb610dbc83600a610309565b611ac76113ac83610fb6565b11611d7e5760018094818280611adc86610fb6565b905b611d10575b5050611aed600090565b50611b01611afc866017610309565b61195b565b918115611cda57611b18906112198761146c61196e565b611b266113cc866012610309565b91611b356113cc876011610309565b919293505b87611b44866102fc565b905b611b69575b505050505050611219611b616102b29394610fb6565b91600a610309565b611b746102c0835190565b811015611cd5579081611b93611b8e8b9796959484611978565b611992565b8415611cbe57611bab6113cc8261037b8c6015610309565b611bb4896102fc565b8111611bcb575b50506001015b9091929394611b46565b91909650611be284611bdd888561199c565b6119c5565b611bee6118428d6112cd565b92611c0282611bfc8b61033e565b9261131f565b90843b156102a057611c36948b92838093611c1c60405190565b98899586948593633e8fe3e760e01b8552600485016119d4565b03925af1978815611cb9578a611c827fd045461de0c2674bd3b698dce4742980fb0a158169b17eba4c9362fd80855c91938f9b611bc1978e91611c8c575b505060405193849384611a0f565b0390a19038611bbb565b81611cab92903d10611cb2575b611ca3818361074c565b810190610639565b8c38611c74565b503d611c99565b611a03565b611cd06113cc8261037b8c6016610309565b611bab565b611b4b565b611cea906112198761146c611964565b611cf86113cc866011610309565b91611d076113cc876012610309565b91929350611b3a565b611d216102c061137789600d610309565b611d2a82610e2c565b1015611d7957611d426113cc826114438a600c610309565b611d5a6113856102c06113cc856114438d600b610309565b10611d6e57611d68906118c1565b81611ade565b505050828238611ae3565b611ae3565b610de482611d8b60405190565b63245aaf7360e01b81529182916004830190815260200190565b611db6611dbd926112198689610309565b5a906118b4565b7f2ff7873895f4a1cad034d792d2d0b8674074f739be42b3dbecf0df4dc8eb58bd611df6611dec6118426121db565b926103a960405190565b0390a23880611aab565b610de490611e0d60405190565b636b3c220b60e11b81529182916004830190815260200190565b604051630647140b60e51b8152600490fd5b6102b29061188d565b906102b291611e4f612a70565b906102b291611e5d81612af0565b612b0d565b906102b291611e42565b6102c090611e78612bed565b611ea6565b6102c07f360894a13ba1a3210667c828492db98dca3e2076cc3735a920a3ca505d382bbc6102fc565b506102c0611e7d565b6102c06000611e6c565b6102b290611ec561297a565b611eda565b90610fe66102c0610e7492151590565b90600491611eeb610dbc8285610347565b611f7657611f076001611f0283611f179596610347565b611eca565b6118426001611f02836005610347565b807fc8f4bb31f853543acc31c1479ded6fc89b27079e131d805734fc3d8ce5b7979c611f4260405190565b600090a27f3d7790f77476184ac44f422508d42f9e39bd55eb41f3ba302a3d68bc71311a99611f7060405190565b600090a2565b610de483611f8360405190565b6316edc7df60e21b8152918291820190565b6102b290611eb9565b6102c06000611fab612c29565b01610d9c565b6102b290611fbd61297a565b611fca611a4b60006118ab565b611fd3826102b4565b14611e2757611fe46102b29161033e565b6001610e87565b6102b290611fb1565b6112bc906120006128e7565b612011610dc1610dbc336004610347565b610dd2576102b29061202761134b826009610309565b61203361135c336102b4565b036120f757612046610dbc826010610309565b6120546113ac6104a8610fc3565b03611e00576120676113cc826012610309565b61207461138560006102fc565b146120e5576120876113cc826011610309565b61209461138560006102fc565b146120d3576102b2906120b36120a86112ff565b611219836010610309565b6120c86120c182600e610309565b4290610e5d565b6111af336007610347565b6040516314c7ab5360e21b8152600490fd5b6040516328cd849b60e11b8152600490fd5b60405163518a962b60e01b8152600490fd5b6102b290611ff4565b6102b29061211e61297a565b90600491612132610dc1610dbc8386610347565b612173576118426000611f02836121499596610347565b7f5cd2c63f2658de84952baf6a0e914d0997bbacc2d17fd2b6d928dcf951e697c7611f7060405190565b610de48361218060405190565b63315176d960e01b8152918291820190565b6102b290612112565b6121a361297a565b6102b26102b26121b360006118ab565b612c4d565b6102b261219b565b6121c861297a565b6102b26102b2612d02565b6102b26121c0565b6102c060007f9016d09d72d40fdae2fd8ceac6b6234c7706214fd39c1cd1e609a0528c1993005b016112cd565b69ffffffffffffffffffff8116610299565b905051906102b282612208565b905051906102b282610297565b919060a0838203126102a05761224a818461221a565b926122588260208301612227565b926102c06122698460408501612227565b9360806122798260608701612227565b940161221a565b61228d61184260006112cd565b60a061229860405190565b633fabe5a360e21b815291829060049082905afa908115611cb9576102c0916122c9916000916122db575b506102fc565b6122d5620f42406102fc565b9061199c565b6122fd915060a03d60a011612306575b6122f5818361074c565b810190612234565b505050906122c3565b503d6122eb565b6102b29061231961297a565b6102b2906003611736565b6102b29061230d565b906112bc9161233a6128e7565b9061234c610dc1610dbc336005610347565b612359576102b29161240b565b604051632a7a45a960e11b8152600490fd5b6102c090610df0565b6102c0905461236b565b916001600160a01b0360089290920291821b911b610e53565b91906123a86102c0610e749361033e565b90835461237e565b80549190600160401b83101561076d57826123d39160016102b295018155610c83565b90612397565b6117ab6102b2946124026060949897956123f8608086019a6000870152565b602085019061052a565b15156040830152565b612419610dbc826010610309565b6124276113ac6104a86112ff565b14611e00576124396102c06002610e43565b341061186e5761244c61184260016112cd565b9160009261245f61135c611a4b866118ab565b14611e27576124836124756113cc846013610309565b6107a26113cc856014610309565b6124936113856110c26003612374565b10156126a3576124a761134b836009610309565b6124b361135c336102b4565b148061269b575b612689576124d66113cc6124cf846015610309565b3390610347565b6124e2611385856102fc565b14158015612664575b612652576124fc61184260016112cd565b9263f6326fb393803b156102a05761252294829161251960405190565b96879260e01b90565b8252600490829034905af1938415611cb9577f4af71b021e799c62c158bd54636ca8da2fa26115a21a2dc6efe486ec104fd15f94612635575b505080156125f65761258e61257060016102fc565b61258861257e856013610309565b916107a283610e43565b90610e5d565b6125ad61259c836011610309565b6125886125a882610e43565b340190565b6125c56125be6124cf846015610309565b3490610e5d565b6125dd6125d66102c0846017610309565b33906123b0565b6116bd6125e960405190565b92839234913390856123d9565b61261161260360016102fc565b61258861257e856014610309565b61261f61259c836012610309565b6126306125be6124cf846016610309565b6125c5565b8161264b92903d10611cb257611ca3818361074c565b388061255b565b604051631e1a6b8d60e01b8152600490fd5b506126766113cc6124cf846016610309565b612682611385856102fc565b14156124eb565b6040516368b2c32960e11b8152600490fd5b5080156124ba565b60405163844bc54960e01b8152600490fd5b906102b29161232d565b6102b2906126cb61297a565b6126d9610dbc826005610347565b61271b57806118426001611f026126f1946005610347565b7f3d7790f77476184ac44f422508d42f9e39bd55eb41f3ba302a3d68bc71311a99611f7060405190565b604051634a4c501760e01b8152600490fd5b6102b2906126bf565b906112bc916127436128e7565b90612755610dc1610dbc336005610347565b61235957506102b29061276f6113cc6124cf836015610309565b61277c61138560006102fc565b14908161278b575b5061265257565b61279e91506124cf6113cc916016610309565b6127ab61138560006102fc565b1438612784565b906102b291612736565b906127cb6118ea610bcb845490565b9060005b8181106127dc5750505090565b9091926127f96119216001926127f187610e43565b815260200190565b9291016127cf565b906102c0916127bc565b906102b26119549261281c60405190565b93848092612801565b6102c09061280b565b6128456102c09161283d606090565b506006610347565b612825565b6102b29061285661297a565b61286060006102fc565b811461186e576102b2906002610e5d565b6102b29061284a565b6102b29061288661297a565b61289060006118ab565b612899816102b4565b6128a2836102b4565b146128b157506102b290612c4d565b610de4906128be60405190565b631e4fbdf760e01b815291829160048301610533565b6102b29061287a565b6102c060026102fc565b7f9b779b17422d0df92223018b32b4d1fa46e071723d6817e2486d003becc55f0061291181610e43565b6129196128dd565b908114612929576102b291610e5d565b604051633ee5aeb560e01b8152600490fd5b6102c060016102fc565b6102b27f9b779b17422d0df92223018b32b4d1fa46e071723d6817e2486d003becc55f00600061297361293b565b9101610e5d565b6129826121db565b339061299061135c836102b4565b036129985750565b610de4906129a560405190565b63118cdaa760e01b815291829160048301610533565b6129c3612d0a565b6102b26129da6000806129d4612c29565b01611eca565b7f5db9ee0a495bf2e6ff9c91a7834c1ba4fdd244a5e8aa4e537bd38aeae4b073aa6116bd3361055e565b6102b26129bb565b612a14612d2d565b6102b26102b2612d58565b6102b2612a0c565b612a2f612d2d565b6102b26102b2612d79565b6102b2612a27565b6102b290612a4e612d2d565b6102b290612d8d565b6102b290612a42565b6102b2612d2d565b6102b2612a60565b612a793061033e565b7f000000000000000000000000000000000000000000000000000000000000000090612aa761135c836102b4565b14908115612ac9575b50612ab757565b60405163703e46dd60e11b8152600490fd5b9050612adf61135c612ad9612d96565b926102b4565b141538612ab0565b506102b261297a565b6102b290612ae7565b906020828203126102a0576102c091612227565b90612b1a6118428361033e565b906020612b2660405190565b6352d1902d60e01b815292839060049082905afa60009281612bbc575b50612b765750506001612b535750565b610de490612b6060405190565b634c9c8ce360e01b815291829160048301610533565b909291612b846102c0611e7d565b8403612b95576102b2929350612da6565b610de484612ba260405190565b632a87526960e21b81529182916004830190815260200190565b612bdf91935060203d602011612be6575b612bd7818361074c565b810190612af9565b9138612b43565b503d612bcd565b612bf63061033e565b612c2261135c7f00000000000000000000000000000000000000000000000000000000000000006102b4565b03612ab757565b7fcd5ed15c6e187e77e9aee88184c21f4f2182ab5827cb3b7e07fbedcd63f0330090565b612c8d612c877f9016d09d72d40fdae2fd8ceac6b6234c7706214fd39c1cd1e609a0528c19930061184284612c81836112cd565b92610e87565b9161033e565b907f8be0079c531659141344cd1fd0a4f28419497f9722a3daafe3b4186f6b6457e0612cb860405190565b600090a3565b612cc6612e12565b6102b2612cd8600160006129d4612c29565b7f62e78cea01bee320cd4e420270b5ea74000d11b0c9f74754ebdbfc544b05a2586116bd3361055e565b6102b2612cbe565b612d15610dc1611f9e565b612d1b57565b604051638dfc202b60e01b8152600490fd5b612d38610dc1612e32565b612d3e57565b604051631afcd79f60e31b8152600490fd5b6112bc612d2d565b6102b2612d50565b612d68612d2d565b6102b26102b26000806129d4612c29565b6102b2612d60565b6102b290612886612d2d565b6102b290612d81565b6102c060006122026102c0611e7d565b90612db082612e5b565b612db98261033e565b7fbc7cd75a20ee27fd9adebab32041f755214dbc6bffa90cc0225b39da2e5c2d3b612de360405190565b600090a28051612df661138560006102fc565b1115612e0857612e0591612ec9565b50565b50506102b2612e86565b612e1a611f9e565b612e2057565b60405163d93c066560e01b8152600490fd5b6102c07ff0c57e16840df040f15088dc2f81fe391c3923bec73e23a9662efc9c229c6a00610e22565b803b612e6a61138560006102fc565b14612b53576102b2906000612e806102c0611e7d565b01610e87565b612e9060006102fc565b3411612e9857565b60405163b398979f60e01b8152600490fd5b3d15612ec457612eb93d610a6a565b903d6000602084013e565b606090565b6000806102c093612ed8606090565b50602081519101845af4612eea612eaa565b9190612ef65750612f4d565b8151612f0561138560006102fc565b1480612f37575b612f14575090565b610de490612f2160405190565b639996b31560e01b815291829160048301610533565b50803b612f4761138560006102fc565b14612f0c565b8051612f5c61138560006102fc565b1115612f6a57805190602001fd5b60405163d6bda27560e01b8152600490fdfea26469706673582212207c5036df54c6ba650ee1ede05c640494c04ca54169f5c064f4c1c9696c8c174f64736f6c63430008160033",
  "linkReferences": {},
  "deployedLinkReferences": {}
}