{
    "_format": "hh-sol-artifact-1",
    "contractName": "Challenge",
    "sourceName": "contracts/Challenge.sol",
    "abi": [
        {
            "inputs": [],
            "stateMutability": "nonpayable",
            "type": "constructor"
        },
        {
            "inputs": [
                {
                    "internalType": "address",
                    "name": "target",
                    "type": "address"
                }
            ],
            "name": "AddressEmptyCode",
            "type": "error"
        },
        {
            "inputs": [],
            "name": "BettorAlreadyInWhitelist",
            "type": "error"
        },
        {
            "inputs": [],
            "name": "BettorCannotUpdateBet",
            "type": "error"
        },
        {
            "inputs": [],
            "name": "BettorNotInWhitelist",
            "type": "error"
        },
        {
            "inputs": [
                {
                    "internalType": "uint256",
                    "name": "challengeId",
                    "type": "uint256"
                },
                {
                    "internalType": "address",
                    "name": "caller",
                    "type": "address"
                },
                {
                    "internalType": "address",
                    "name": "challenger",
                    "type": "address"
                }
            ],
            "name": "ChallengeCanOnlyBeModifiedByChallenger",
            "type": "error"
        },
        {
            "inputs": [],
            "name": "ChallengeCannotBeModified",
            "type": "error"
        },
        {
            "inputs": [
                {
                    "internalType": "uint256",
                    "name": "activeChallengeId",
                    "type": "uint256"
                }
            ],
            "name": "ChallengeIsActive",
            "type": "error"
        },
        {
            "inputs": [
                {
                    "internalType": "uint256",
                    "name": "challengeId",
                    "type": "uint256"
                }
            ],
            "name": "ChallengeIsExpired",
            "type": "error"
        },
        {
            "inputs": [
                {
                    "internalType": "uint256",
                    "name": "challengeId",
                    "type": "uint256"
                },
                {
                    "internalType": "uint8",
                    "name": "challengeStatus",
                    "type": "uint8"
                }
            ],
            "name": "ChallengeIsNotActive",
            "type": "error"
        },
        {
            "inputs": [],
            "name": "ChallengerAlreadyInWhitelist",
            "type": "error"
        },
        {
            "inputs": [],
            "name": "ChallengerCannotBetAgainstHimself",
            "type": "error"
        },
        {
            "inputs": [],
            "name": "ChallengerNotInWhitelist",
            "type": "error"
        },
        {
            "inputs": [
                {
                    "internalType": "address",
                    "name": "implementation",
                    "type": "address"
                }
            ],
            "name": "ERC1967InvalidImplementation",
            "type": "error"
        },
        {
            "inputs": [],
            "name": "ERC1967NonPayable",
            "type": "error"
        },
        {
            "inputs": [],
            "name": "EnforcedPause",
            "type": "error"
        },
        {
            "inputs": [],
            "name": "ExpectedPause",
            "type": "error"
        },
        {
            "inputs": [],
            "name": "FailedCall",
            "type": "error"
        },
        {
            "inputs": [],
            "name": "InvalidInitialization",
            "type": "error"
        },
        {
            "inputs": [],
            "name": "MalformedChallengeMetricsProvided",
            "type": "error"
        },
        {
            "inputs": [],
            "name": "MinimumBetAmountTooSmall",
            "type": "error"
        },
        {
            "inputs": [],
            "name": "NobodyBettingAgainstChallenger",
            "type": "error"
        },
        {
            "inputs": [],
            "name": "NobodyBettingForChallenger",
            "type": "error"
        },
        {
            "inputs": [],
            "name": "NotInitializing",
            "type": "error"
        },
        {
            "inputs": [
                {
                    "internalType": "address",
                    "name": "owner",
                    "type": "address"
                }
            ],
            "name": "OwnableInvalidOwner",
            "type": "error"
        },
        {
            "inputs": [
                {
                    "internalType": "address",
                    "name": "account",
                    "type": "address"
                }
            ],
            "name": "OwnableUnauthorizedAccount",
            "type": "error"
        },
        {
            "inputs": [],
            "name": "ReentrancyGuardReentrantCall",
            "type": "error"
        },
        {
            "inputs": [],
            "name": "TooManyBettors",
            "type": "error"
        },
        {
            "inputs": [],
            "name": "UUPSUnauthorizedCallContext",
            "type": "error"
        },
        {
            "inputs": [
                {
                    "internalType": "bytes32",
                    "name": "slot",
                    "type": "bytes32"
                }
            ],
            "name": "UUPSUnsupportedProxiableUUID",
            "type": "error"
        },
        {
            "inputs": [],
            "name": "VaultNotSet",
            "type": "error"
        },
        {
            "inputs": [
                {
                    "internalType": "uint256",
                    "name": "challengeId",
                    "type": "uint256"
                }
            ],
            "name": "WinningsAlreadyPaid",
            "type": "error"
        },
        {
            "anonymous": false,
            "inputs": [
                {
                    "indexed": false,
                    "internalType": "uint256",
                    "name": "challengeId",
                    "type": "uint256"
                },
                {
                    "indexed": false,
                    "internalType": "address",
                    "name": "bettor",
                    "type": "address"
                },
                {
                    "indexed": false,
                    "internalType": "bool",
                    "name": "bettingForChallenger",
                    "type": "bool"
                },
                {
                    "indexed": false,
                    "internalType": "uint256",
                    "name": "betAmount",
                    "type": "uint256"
                }
            ],
            "name": "BetPlaced",
            "type": "event"
        },
        {
            "anonymous": false,
            "inputs": [
                {
                    "indexed": true,
                    "internalType": "address",
                    "name": "bettor",
                    "type": "address"
                }
            ],
            "name": "BettorJoined",
            "type": "event"
        },
        {
            "anonymous": false,
            "inputs": [
                {
                    "indexed": true,
                    "internalType": "address",
                    "name": "challenger",
                    "type": "address"
                },
                {
                    "indexed": true,
                    "internalType": "uint256",
                    "name": "challengeId",
                    "type": "uint256"
                }
            ],
            "name": "ChallengeCreated",
            "type": "event"
        },
        {
            "anonymous": false,
            "inputs": [
                {
                    "indexed": true,
                    "internalType": "address",
                    "name": "challenger",
                    "type": "address"
                },
                {
                    "indexed": true,
                    "internalType": "uint256",
                    "name": "challengeId",
                    "type": "uint256"
                }
            ],
            "name": "ChallengeStarted",
            "type": "event"
        },
        {
            "anonymous": false,
            "inputs": [
                {
                    "indexed": true,
                    "internalType": "address",
                    "name": "challenger",
                    "type": "address"
                }
            ],
            "name": "ChallengerJoined",
            "type": "event"
        },
        {
            "anonymous": false,
            "inputs": [
                {
                    "indexed": true,
                    "internalType": "address",
                    "name": "challenger",
                    "type": "address"
                }
            ],
            "name": "ChallengerRemoved",
            "type": "event"
        },
        {
            "anonymous": false,
            "inputs": [
                {
                    "indexed": true,
                    "internalType": "address",
                    "name": "bettor",
                    "type": "address"
                },
                {
                    "indexed": false,
                    "internalType": "uint256",
                    "name": "gasUsed",
                    "type": "uint256"
                }
            ],
            "name": "GasUsed",
            "type": "event"
        },
        {
            "anonymous": false,
            "inputs": [
                {
                    "indexed": false,
                    "internalType": "uint64",
                    "name": "version",
                    "type": "uint64"
                }
            ],
            "name": "Initialized",
            "type": "event"
        },
        {
            "anonymous": false,
            "inputs": [
                {
                    "indexed": false,
                    "internalType": "uint256",
                    "name": "oldValue",
                    "type": "uint256"
                },
                {
                    "indexed": false,
                    "internalType": "uint256",
                    "name": "newValue",
                    "type": "uint256"
                }
            ],
            "name": "MinimumBetValueSet",
            "type": "event"
        },
        {
            "anonymous": false,
            "inputs": [
                {
                    "indexed": true,
                    "internalType": "address",
                    "name": "previousOwner",
                    "type": "address"
                },
                {
                    "indexed": true,
                    "internalType": "address",
                    "name": "newOwner",
                    "type": "address"
                }
            ],
            "name": "OwnershipTransferred",
            "type": "event"
        },
        {
            "anonymous": false,
            "inputs": [
                {
                    "indexed": false,
                    "internalType": "address",
                    "name": "account",
                    "type": "address"
                }
            ],
            "name": "Paused",
            "type": "event"
        },
        {
            "anonymous": false,
            "inputs": [
                {
                    "indexed": false,
                    "internalType": "address",
                    "name": "account",
                    "type": "address"
                }
            ],
            "name": "Unpaused",
            "type": "event"
        },
        {
            "anonymous": false,
            "inputs": [
                {
                    "indexed": true,
                    "internalType": "address",
                    "name": "implementation",
                    "type": "address"
                }
            ],
            "name": "Upgraded",
            "type": "event"
        },
        {
            "anonymous": false,
            "inputs": [
                {
                    "indexed": false,
                    "internalType": "uint256",
                    "name": "challengeId",
                    "type": "uint256"
                },
                {
                    "indexed": false,
                    "internalType": "address",
                    "name": "bettor",
                    "type": "address"
                },
                {
                    "indexed": false,
                    "internalType": "uint256",
                    "name": "share",
                    "type": "uint256"
                }
            ],
            "name": "WinningsDistributed",
            "type": "event"
        },
        {
            "inputs": [],
            "name": "UPGRADE_INTERFACE_VERSION",
            "outputs": [
                {
                    "internalType": "string",
                    "name": "",
                    "type": "string"
                }
            ],
            "stateMutability": "view",
            "type": "function"
        },
        {
            "inputs": [
                {
                    "internalType": "address",
                    "name": "bettor",
                    "type": "address"
                }
            ],
            "name": "addNewBettor",
            "outputs": [],
            "stateMutability": "nonpayable",
            "type": "function"
        },
        {
            "inputs": [
                {
                    "internalType": "address",
                    "name": "challenger",
                    "type": "address"
                }
            ],
            "name": "addNewChallenger",
            "outputs": [],
            "stateMutability": "nonpayable",
            "type": "function"
        },
        {
            "inputs": [
                {
                    "internalType": "address",
                    "name": "",
                    "type": "address"
                }
            ],
            "name": "bettorWhitelist",
            "outputs": [
                {
                    "internalType": "bool",
                    "name": "",
                    "type": "bool"
                }
            ],
            "stateMutability": "view",
            "type": "function"
        },
        {
            "inputs": [
                {
                    "internalType": "uint256",
                    "name": "",
                    "type": "uint256"
                },
                {
                    "internalType": "address",
                    "name": "",
                    "type": "address"
                }
            ],
            "name": "challengeToBetsAgainst",
            "outputs": [
                {
                    "internalType": "uint256",
                    "name": "",
                    "type": "uint256"
                }
            ],
            "stateMutability": "view",
            "type": "function"
        },
        {
            "inputs": [
                {
                    "internalType": "uint256",
                    "name": "",
                    "type": "uint256"
                },
                {
                    "internalType": "address",
                    "name": "",
                    "type": "address"
                }
            ],
            "name": "challengeToBetsFor",
            "outputs": [
                {
                    "internalType": "uint256",
                    "name": "",
                    "type": "uint256"
                }
            ],
            "stateMutability": "view",
            "type": "function"
        },
        {
            "inputs": [
                {
                    "internalType": "uint256",
                    "name": "",
                    "type": "uint256"
                },
                {
                    "internalType": "uint256",
                    "name": "",
                    "type": "uint256"
                }
            ],
            "name": "challengeToBettors",
            "outputs": [
                {
                    "internalType": "address",
                    "name": "",
                    "type": "address"
                }
            ],
            "stateMutability": "view",
            "type": "function"
        },
        {
            "inputs": [
                {
                    "internalType": "uint256",
                    "name": "",
                    "type": "uint256"
                }
            ],
            "name": "challengeToChallengeLength",
            "outputs": [
                {
                    "internalType": "uint256",
                    "name": "",
                    "type": "uint256"
                }
            ],
            "stateMutability": "view",
            "type": "function"
        },
        {
            "inputs": [
                {
                    "internalType": "uint256",
                    "name": "",
                    "type": "uint256"
                }
            ],
            "name": "challengeToChallengeStatus",
            "outputs": [
                {
                    "internalType": "uint8",
                    "name": "",
                    "type": "uint8"
                }
            ],
            "stateMutability": "view",
            "type": "function"
        },
        {
            "inputs": [
                {
                    "internalType": "uint256",
                    "name": "",
                    "type": "uint256"
                }
            ],
            "name": "challengeToChallenger",
            "outputs": [
                {
                    "internalType": "address",
                    "name": "",
                    "type": "address"
                }
            ],
            "stateMutability": "view",
            "type": "function"
        },
        {
            "inputs": [
                {
                    "internalType": "uint256",
                    "name": "",
                    "type": "uint256"
                }
            ],
            "name": "challengeToNumberOfBettorsAgainst",
            "outputs": [
                {
                    "internalType": "uint256",
                    "name": "",
                    "type": "uint256"
                }
            ],
            "stateMutability": "view",
            "type": "function"
        },
        {
            "inputs": [
                {
                    "internalType": "uint256",
                    "name": "",
                    "type": "uint256"
                }
            ],
            "name": "challengeToNumberOfBettorsFor",
            "outputs": [
                {
                    "internalType": "uint256",
                    "name": "",
                    "type": "uint256"
                }
            ],
            "stateMutability": "view",
            "type": "function"
        },
        {
            "inputs": [
                {
                    "internalType": "uint256",
                    "name": "",
                    "type": "uint256"
                }
            ],
            "name": "challengeToStartTime",
            "outputs": [
                {
                    "internalType": "uint256",
                    "name": "",
                    "type": "uint256"
                }
            ],
            "stateMutability": "view",
            "type": "function"
        },
        {
            "inputs": [
                {
                    "internalType": "uint256",
                    "name": "",
                    "type": "uint256"
                }
            ],
            "name": "challengeToTotalAmountBetAgainst",
            "outputs": [
                {
                    "internalType": "uint256",
                    "name": "",
                    "type": "uint256"
                }
            ],
            "stateMutability": "view",
            "type": "function"
        },
        {
            "inputs": [
                {
                    "internalType": "uint256",
                    "name": "",
                    "type": "uint256"
                }
            ],
            "name": "challengeToTotalAmountBetFor",
            "outputs": [
                {
                    "internalType": "uint256",
                    "name": "",
                    "type": "uint256"
                }
            ],
            "stateMutability": "view",
            "type": "function"
        },
        {
            "inputs": [
                {
                    "internalType": "uint256",
                    "name": "",
                    "type": "uint256"
                }
            ],
            "name": "challengeToWinningsPaid",
            "outputs": [
                {
                    "internalType": "uint8",
                    "name": "",
                    "type": "uint8"
                }
            ],
            "stateMutability": "view",
            "type": "function"
        },
        {
            "inputs": [
                {
                    "internalType": "address",
                    "name": "",
                    "type": "address"
                }
            ],
            "name": "challengerToActiveChallenge",
            "outputs": [
                {
                    "internalType": "uint256",
                    "name": "",
                    "type": "uint256"
                }
            ],
            "stateMutability": "view",
            "type": "function"
        },
        {
            "inputs": [
                {
                    "internalType": "address",
                    "name": "",
                    "type": "address"
                }
            ],
            "name": "challengerWhitelist",
            "outputs": [
                {
                    "internalType": "bool",
                    "name": "",
                    "type": "bool"
                }
            ],
            "stateMutability": "view",
            "type": "function"
        },
        {
            "inputs": [
                {
                    "internalType": "uint256",
                    "name": "_challengeId",
                    "type": "uint256"
                },
                {
                    "internalType": "bool",
                    "name": "_bettingFor",
                    "type": "bool"
                }
            ],
            "name": "changeBet",
            "outputs": [],
            "stateMutability": "payable",
            "type": "function"
        },
        {
            "inputs": [
                {
                    "internalType": "uint256",
                    "name": "_newMinimumValue",
                    "type": "uint256"
                }
            ],
            "name": "changeMinimumBetValue",
            "outputs": [],
            "stateMutability": "nonpayable",
            "type": "function"
        },
        {
            "inputs": [
                {
                    "internalType": "uint256",
                    "name": "_lengthOfChallenge",
                    "type": "uint256"
                },
                {
                    "internalType": "uint8[]",
                    "name": "_challengeMetrics",
                    "type": "uint8[]"
                },
                {
                    "internalType": "uint256[]",
                    "name": "_targetMeasurementsForEachMetric",
                    "type": "uint256[]"
                }
            ],
            "name": "createChallenge",
            "outputs": [
                {
                    "internalType": "uint256",
                    "name": "",
                    "type": "uint256"
                }
            ],
            "stateMutability": "nonpayable",
            "type": "function"
        },
        {
            "inputs": [
                {
                    "internalType": "uint256",
                    "name": "_challengeId",
                    "type": "uint256"
                }
            ],
            "name": "distributeWinnings",
            "outputs": [],
            "stateMutability": "nonpayable",
            "type": "function"
        },
        {
            "inputs": [
                {
                    "internalType": "address",
                    "name": "challenger",
                    "type": "address"
                }
            ],
            "name": "getChallengesForChallenger",
            "outputs": [
                {
                    "internalType": "uint256[]",
                    "name": "",
                    "type": "uint256[]"
                }
            ],
            "stateMutability": "view",
            "type": "function"
        },
        {
            "inputs": [],
            "name": "getLatestPrice",
            "outputs": [
                {
                    "internalType": "uint256",
                    "name": "",
                    "type": "uint256"
                }
            ],
            "stateMutability": "view",
            "type": "function"
        },
        {
            "inputs": [
                {
                    "internalType": "uint256",
                    "name": "_minimumBetValue",
                    "type": "uint256"
                },
                {
                    "internalType": "address",
                    "name": "_dataFeedAddress",
                    "type": "address"
                }
            ],
            "name": "initialize",
            "outputs": [],
            "stateMutability": "nonpayable",
            "type": "function"
        },
        {
            "inputs": [],
            "name": "latestChallengeId",
            "outputs": [
                {
                    "internalType": "uint256",
                    "name": "",
                    "type": "uint256"
                }
            ],
            "stateMutability": "view",
            "type": "function"
        },
        {
            "inputs": [],
            "name": "owner",
            "outputs": [
                {
                    "internalType": "address",
                    "name": "",
                    "type": "address"
                }
            ],
            "stateMutability": "view",
            "type": "function"
        },
        {
            "inputs": [],
            "name": "pause",
            "outputs": [],
            "stateMutability": "nonpayable",
            "type": "function"
        },
        {
            "inputs": [],
            "name": "paused",
            "outputs": [
                {
                    "internalType": "bool",
                    "name": "",
                    "type": "bool"
                }
            ],
            "stateMutability": "view",
            "type": "function"
        },
        {
            "inputs": [
                {
                    "internalType": "uint256",
                    "name": "_challengeId",
                    "type": "uint256"
                },
                {
                    "internalType": "bool",
                    "name": "_bettingFor",
                    "type": "bool"
                }
            ],
            "name": "placeBet",
            "outputs": [],
            "stateMutability": "payable",
            "type": "function"
        },
        {
            "inputs": [],
            "name": "proxiableUUID",
            "outputs": [
                {
                    "internalType": "bytes32",
                    "name": "",
                    "type": "bytes32"
                }
            ],
            "stateMutability": "view",
            "type": "function"
        },
        {
            "inputs": [
                {
                    "internalType": "address",
                    "name": "challenger",
                    "type": "address"
                }
            ],
            "name": "removeChallenger",
            "outputs": [],
            "stateMutability": "nonpayable",
            "type": "function"
        },
        {
            "inputs": [],
            "name": "renounceOwnership",
            "outputs": [],
            "stateMutability": "nonpayable",
            "type": "function"
        },
        {
            "inputs": [
                {
                    "internalType": "address",
                    "name": "_vault",
                    "type": "address"
                }
            ],
            "name": "setVault",
            "outputs": [],
            "stateMutability": "nonpayable",
            "type": "function"
        },
        {
            "inputs": [
                {
                    "internalType": "uint256",
                    "name": "_challengeId",
                    "type": "uint256"
                }
            ],
            "name": "startChallenge",
            "outputs": [],
            "stateMutability": "nonpayable",
            "type": "function"
        },
        {
            "inputs": [
                {
                    "internalType": "uint256",
                    "name": "_challengeId",
                    "type": "uint256"
                },
                {
                    "internalType": "uint256[]",
                    "name": "_submittedMeasurements",
                    "type": "uint256[]"
                }
            ],
            "name": "submitMeasurements",
            "outputs": [],
            "stateMutability": "nonpayable",
            "type": "function"
        },
        {
            "inputs": [
                {
                    "internalType": "address",
                    "name": "newOwner",
                    "type": "address"
                }
            ],
            "name": "transferOwnership",
            "outputs": [],
            "stateMutability": "nonpayable",
            "type": "function"
        },
        {
            "inputs": [],
            "name": "unpause",
            "outputs": [],
            "stateMutability": "nonpayable",
            "type": "function"
        },
        {
            "inputs": [
                {
                    "internalType": "address",
                    "name": "newImplementation",
                    "type": "address"
                },
                {
                    "internalType": "bytes",
                    "name": "data",
                    "type": "bytes"
                }
            ],
            "name": "upgradeToAndCall",
            "outputs": [],
            "stateMutability": "payable",
            "type": "function"
        }
    ],
    "bytecode": "0x60a0604052346200003657620000146200003b565b604051612c71620001ec82396080518181816126d101526128540152612c7190f35b600080fd5b6200004562000051565b6200004f62000134565b565b6200004f6200004f6200004f6200004f620000a2565b6200007d9062000080906001600160a01b031682565b90565b6001600160a01b031690565b6200007d9062000067565b6200007d906200008c565b620000ad3062000097565b608052565b6200007d9060401c60ff1690565b6200007d9054620000b2565b6200007d905b6001600160401b031690565b6200007d9054620000cc565b6200007d90620000d2906001600160401b031682565b90620001146200007d6200013092620000ea565b82546001600160401b0319166001600160401b03919091161790565b9055565b7ff0c57e16840df040f15088dc2f81fe391c3923bec73e23a9662efc9c229c6a006200016081620000c0565b620001d9576200017081620000de565b6001600160401b039190829081160362000188575050565b81620001ba7fc7f505b2f371ae2175ee4913f4499e1f2633a7b5936321eed1cdaeb6115181d293620001d49362000100565b604051918291826001600160401b03909116815260200190565b0390a1565b60405163f92ee8a960e01b8152600490fdfe6080604052600436101561001257600080fd5b60003560e01c806302a4a84b146102825780630bbc689c1461027d5780630f248ace146102785780631ac826de14610273578063222474171461026e57806324f6626f1461026957806331a2847314610264578063349f96bc1461025f5780633f4ba83a1461025a57806343f1f6d1146102555780634544c48c146102505780634f1ef2861461024b57806352d1902d1461024657806354f1a0f514610241578063559406ee1461023c57806356582770146102375780635c975abb146102325780635f7727641461022d5780636817031b146102285780636ad4e87a146102235780636c578c1d1461021e578063715018a6146102195780638045d63e146102145780638456cb591461020f5780638da5cb5b1461020a5780638e15f473146102055780639ed9c74d14610200578063ad3cb1cc146101fb578063b03d29d2146101f6578063b3b939b6146101f1578063bf26931f146101ec578063c4ff8946146101e7578063c5ec6381146101e2578063d15993d7146101dd578063d7b17224146101d8578063da35a26f146101d3578063edb8aa9b146101ce578063eec8ba21146101c95763f2fde38b0361029057610ca2565b610c87565b610c5f565b610c46565b610c2b565b610bff565b610b50565b610ad5565b610aba565b610a96565b610a7b565b610a44565b610983565b610930565b610915565b6108fd565b6108e1565b6108b5565b61089d565b610885565b61086d565b610852565b610827565b61080f565b6107f4565b6107c9565b61079e565b61078a565b610677565b61065c565b610634565b6105fc565b6105bd565b61058f565b610533565b6104be565b610470565b6103ce565b610379565b805b0361029057565b600080fd5b905035906102a282610287565b565b6001600160a01b031690565b90565b610289816102a4565b905035906102a2826102b3565b9190604083820312610290576102b09060206102e58286610295565b94016102bc565b6102b06102b06102b09290565b90610303906102ec565b600052602052604060002090565b6102b0906102a4906001600160a01b031682565b6102b090610311565b6102b090610325565b906103039061032e565b6102b0916008021c81565b906102b09154610341565b6103706102b09261036b60009360146102f9565b610337565b61034c565b9052565b34610290576103a661039561038f3660046102c9565b90610357565b6040515b9182918290815260200190565b0390f35b90602082820312610290576102b091610295565b60006103706102b09260106102f9565b34610290576103a66103956103e43660046103aa565b6103be565b909182601f83011215610290578135916001600160401b03831161029057602001926020830284011161029057565b6060818303126102905761042c8282610295565b9260208201356001600160401b038111610290578361044c9184016103e9565b92909360408201356001600160401b0381116102905761046c92016103e9565b9091565b34610290576103a6610395610486366004610418565b93929092611018565b6102b0916008021c5b60ff1690565b906102b0915461048f565b60006104b96102b092600f6102f9565b61049e565b34610290576103a66104d96104d43660046103aa565b6104a9565b6040519182918260ff909116815260200190565b6102b0916008021c6102a4565b906102b091546104ed565b60006105156102b09260086102f9565b6104fa565b610375906102a4565b6020810192916102a2919061051a565b34610290576103a661054e6105493660046103aa565b610505565b60405191829182610523565b919091604081840312610290576105718382610295565b9260208201356001600160401b0381116102905761046c92016103e9565b34610290576105a86105a236600461055a565b9161129a565b604051005b60006103706102b09260116102f9565b34610290576103a66103956105d33660046103aa565b6105ad565b90602082820312610290576102b0916102bc565b60006104b96102b0926004610337565b34610290576103a66106176106123660046105d8565b6105ec565b60405191829182901515815260200190565b600091031261029057565b3461029057610644366004610629565b6105a86112b8565b60006103706102b09260136102f9565b34610290576103a66103956106723660046103aa565b61064c565b34610290576105a861068a3660046103aa565b611836565b634e487b7160e01b600052604160045260246000fd5b90601f01601f191681019081106001600160401b038211176106c657604052565b61068f565b906102a26106d860405190565b92836106a5565b6001600160401b0381116106c657602090601f01601f19160190565b0190565b90826000939282370152565b9092919261072061071b826106df565b6106cb565b9381855281830111610290576102a29160208501906106ff565b9080601f83011215610290578160206102b09335910161070b565b9190916040818403126102905761076c83826102bc565b9260208201356001600160401b038111610290576102b0920161073a565b6105a8610798366004610755565b9061185f565b34610290576107ae366004610629565b6103a66103956118ac565b60006103706102b092600e6102f9565b34610290576103a66103956107df3660046103aa565b6107b9565b60006104b96102b09260096102f9565b34610290576103a66104d961080a3660046103aa565b6107e4565b34610290576105a86108223660046105d8565b611983565b3461029057610837366004610629565b6103a661061761198c565b60006104b96102b0926003610337565b34610290576103a66106176108683660046105d8565b610842565b34610290576105a86108803660046105d8565b611a0b565b34610290576105a86108983660046103aa565b611afa565b34610290576105a86108b03660046105d8565b611b62565b34610290576108c5366004610629565b6105a8611b88565b6103706102b09261036b60009360156102f9565b34610290576103a66103956108f73660046102c9565b906108cd565b346102905761090d366004610629565b6105a8611ba3565b3461029057610925366004610629565b6103a661054e611bab565b3461029057610940366004610629565b6103a6610395611c50565b801515610289565b905035906102a28261094b565b9190604083820312610290576102b090602061097c8286610295565b9401610953565b6105a8610991366004610960565b9061209f565b906109a461071b836106df565b918252565b6109b36005610997565b640352e302e360dc1b602082015290565b6102b06109a9565b6102b06109c4565b6102b06109cc565b60005b8381106109ef5750506000910152565b81810151838201526020016109df565b610a20610a296020936106fb93610a14815190565b80835293849260200190565b958691016109dc565b601f01601f191690565b60208082526102b0929101906109ff565b3461029057610a54366004610629565b6103a6610a5f6109d4565b60405191829182610a33565b60006103706102b09260126102f9565b34610290576103a6610395610a913660046103aa565b610a6b565b34610290576105a8610aa93660046105d8565b612126565b6102b06000600761034c565b3461029057610aca366004610629565b6103a6610395610aae565b6105a8610ae3366004610960565b906121ab565b90610b09610b02610af8845190565b8084529260200190565b9260200190565b9060005b818110610b1a5750505090565b909192610b37610b306001928651815260200190565b9460200190565b929101610b0d565b60208082526102b092910190610ae9565b34610290576103a6610b6b610b663660046105d8565b612227565b60405191829182610b3f565b9190604083820312610290576102b0906020610b938286610295565b9401610295565b634e487b7160e01b600052603260045260246000fd5b8054821015610bd357610bca600191600052602060002090565b91020190600090565b610b9a565b610be39060166102f9565b8054821015610290576102b091610bf991610bb0565b906104fa565b34610290576103a661054e610c15366004610b77565b90610bd8565b60006103706102b092600d6102f9565b34610290576103a6610395610c413660046103aa565b610c1b565b34610290576105a8610c593660046102c9565b906124fa565b34610290576105a8610c723660046103aa565b61252b565b60006103706102b0926006610337565b34610290576103a6610395610c9d3660046105d8565b610c77565b34610290576105a8610cb53660046105d8565b61258e565b90610cd09594939291610ccb6125a1565b610cec565b906102a26125ff565b6102b090610498565b6102b09054610cd9565b9493929190610d0b610d07610d02336003610337565b610ce2565b1590565b610d18576102b095610ee8565b60405163315176d960e01b8152600490fd5b0390fd5b6102b09081565b6102b09054610d2e565b90600019905b9181191691161790565b90610d5f6102b0610d66926102ec565b8254610d3f565b9055565b906001600160a01b0390610d45565b90610d896102b0610d669261032e565b8254610d6a565b9160001960089290920291821b911b610d45565b921b90565b9190610dba6102b0610d66936102ec565b908354610d90565b80549190600160401b8310156106c65782610de59160016102a295018155610bb0565b90610da9565b9190811015610bd3576020020190565b356102b081610287565b60ff8116610289565b356102b081610e05565b6104986102b06102b09260ff1690565b9061030390610e18565b8054919291831015610bd3576020610e51600192600052602060002090565b8185040193060290565b91906008610d45910291610da460ff841b90565b9190610e806102b0610d6693610e18565b908354610e5b565b80549190600160401b8310156106c65782610eab9160016102a295018155610e32565b90610e6f565b6104986102b06102b09290565b6102b06000610eb1565b9060ff90610d45565b90610ee16102b0610d6692610e18565b8254610ec8565b509094939192909190839482860361100757610f046007610d35565b93610f22610f1b610f156007610d35565b60010190565b6007610d4f565b610f37610f308660086102f9565b3390610d79565b610f4e85610f496102b0336005610337565b610dc2565b610f5860006102ec565b875b811015610fd457610fcd81610f158b610fc7610fb0848d610faa6102b08f8f8f610f8e610f5a9e610fc093610f9393610deb565b610dfb565b610fbb8a610fb5610fb08a8a610faa89600a6102f9565b94610deb565b610e0e565b90610e28565b610d4f565b600c6102f9565b90610e88565b9050610f58565b5093955095505050610fec9150610fbb83600e6102f9565b6102b0610ff7610ebe565b61100283600f6102f9565b610ed1565b604051622bfe0560e21b8152600490fd5b6102b094939291906000610cba565b919061103a610d07610d02336003610337565b610d18576102a2929061105592916110506125a1565b6110d4565b6102a26125ff565b6102b0906102a4565b6102b0905461105d565b9081526060810193926102a2929091604091611091905b602083019061051a565b019061051a565b6102b06001610eb1565b634e487b7160e01b600052601160045260246000fd5b919082018092116110c557565b6110a2565b6102b06002610eb1565b92916110e96110e48560086102f9565b611066565b6110fb6110f5336102a4565b916102a4565b0361126657600c61111461111086600c6102f9565b5490565b9382948590611122565b9190565b0361100757600f86611137610d0282846102f9565b61114c611145610498611098565b9160ff1690565b03611228576102b061116a61116561117e93600d6102f9565b610d35565b6111786111658b600e6102f9565b906110b8565b4210156111f1575061119060006102ec565b855b8110156111e8576111e181610f156111bf6111b9611192956111b48d8a6102f9565b610e32565b9061049e565b610fbb6111d0610f8e858b8d610deb565b916111dc8d600b6102f9565b610e28565b9050611190565b50945050505050565b8661120b610d2a92611002836112056110ca565b926102f9565b60405163338f4ac960e11b81529182916004830190815260200190565b611235610d0282846102f9565b90610d2a61124260405190565b63742fc31560e11b81529283926004840190815260ff909116602082015260400190565b836112756110e48260086102f9565b90610d2a61128260405190565b635ddd4a4160e01b8152928392339060048501611070565b906102a29291611027565b6112ad612634565b6102a26102a26126be565b6102a26112a5565b6102a2906112cc612634565b61145b565b919082039182116110c557565b6102b06102b06102b09260ff1690565b60016102b0910160ff1690565b906106fb8160209361051a565b90611323611317610af8845490565b92600052602060002090565b9060005b8181106113345750505090565b90919261135561134e60019261134987611066565b6112fb565b9460010190565b929101611327565b906102b091611308565b906102a26113819261137860405190565b9384809261135d565b03836106a5565b6102b090611367565b6102b06004610eb1565b6102b06003610eb1565b906113ae825190565b811015610bd3576020809102010190565b6102b090516102a4565b818102929181159184041417156110c557565b634e487b7160e01b600052601260045260246000fd5b81156113fc570490565b6113dc565b6040906114286102a294969593966114216060840198600085019061051a565b6020830152565b019015159052565b6040513d6000823e3d90fd5b9081526060810193926102a292909160409161145790611087565b0152565b9061147e6102b061147061116585600d6102f9565b61117861116586600e6102f9565b421061180f575a91600f92611496610d0283866102f9565b9061149f6110ca565b916114ac60ff8416611145565b036117b4575b50506114c2610d028260096102f9565b6000906114d161114583610eb1565b1161178d57600180948182806114e686610eb1565b905b61171f575b50506114f7600090565b5061150b6115068660166102f9565b611388565b9181156116e957611522906110028761120561139b565b6115306111658660116102f9565b9161153f6111658760106102f9565b919293505b8761154e866102ec565b905b611573575b50505050505061100261156b6102a29394610eb1565b9160096102f9565b61157e6102b0835190565b8110156116e457908161159d6115988b97969594846113a5565b6113bf565b84156116cd576115b56111658261036b8c60146102f9565b6115be896102ec565b81116115d5575b50506001015b9091929394611550565b919096506115ec846115e788856113c9565b6113f2565b6115fd6115f88d611066565b61032e565b926116118261160b8b61032e565b926110b8565b90843b1561029057611645948b9283809361162b60405190565b98899586948593633e8fe3e760e01b855260048501611401565b03925af19788156116c8578a6116917fd045461de0c2674bd3b698dce4742980fb0a158169b17eba4c9362fd80855c91938f9b6115cb978e9161169b575b50506040519384938461143c565b0390a190386115c5565b816116ba92903d106116c1575b6116b281836106a5565b810190610629565b8c38611683565b503d6116a8565b611430565b6116df6111658261036b8c60156102f9565b6115b5565b611555565b6116f99061100287611205611391565b6117076111658660106102f9565b916117166111658760116102f9565b91929350611544565b6117306102b061111089600c6102f9565b611739826112de565b101561178857611751611165826111dc8a600b6102f9565b61176961111e6102b0611165856111dc8d600a6102f9565b1061177d57611777906112ee565b816114e8565b5050508282386114ed565b6114ed565b610d2a8261179a60405190565b63245aaf7360e01b81529182916004830190815260200190565b6117c56117cc9261100285886102f9565b5a906112d1565b7f2ff7873895f4a1cad034d792d2d0b8674074f739be42b3dbecf0df4dc8eb58bd6118056117fb6115f8611bab565b9261039960405190565b0390a238806114b2565b610d2a8261181c60405190565b636b3c220b60e11b81529182916004830190815260200190565b6102a2906112c0565b906102a29161184c6126c6565b906102a29161185a81612746565b612763565b906102a29161183f565b6102b090611875612843565b6118a3565b6102b07f360894a13ba1a3210667c828492db98dca3e2076cc3735a920a3ca505d382bbc6102ec565b506102b061187a565b6102b06000611869565b6102a2906118c2612634565b6118d7565b90610ee16102b0610d6692151590565b6118e5610d02826003610337565b611971578061190260016118fd611912946003610337565b6118c7565b6115f860016118fd836004610337565b807fc8f4bb31f853543acc31c1479ded6fc89b27079e131d805734fc3d8ce5b7979c61193d60405190565b600090a27f3d7790f77476184ac44f422508d42f9e39bd55eb41f3ba302a3d68bc71311a9961196b60405190565b600090a2565b6040516316edc7df60e21b8152600490fd5b6102a2906118b6565b6102b0600061199961287f565b01610ce2565b6102a2906119ab612634565b6119c6565b6102a46102b06102b09290565b6102b0906119b0565b6119d86119d360006119bd565b6102a4565b6119e1826102a4565b146119f9576119f26102a29161032e565b6001610d79565b604051630647140b60e51b8152600490fd5b6102a29061199f565b61105590611a206125a1565b611a31610d07610d02336003610337565b610d18576102a290611a47610d0282600f6102f9565b611a55611145610498610ebe565b03611aed57611a686111658260116102f9565b611a7561111e60006102ec565b14611adb57611a886111658260106102f9565b611a9561111e60006102ec565b14611ac9576102a290611aa9610ff7611098565b611abe611ab782600d6102f9565b4290610d4f565b610fbb336006610337565b6040516314c7ab5360e21b8152600490fd5b6040516328cd849b60e11b8152600490fd5b610d2a9061181c60405190565b6102a290611a14565b6102a290611b0f612634565b611b20610d07610d02836003610337565b610d1857806115f860006118fd611b38946003610337565b7f5cd2c63f2658de84952baf6a0e914d0997bbacc2d17fd2b6d928dcf951e697c761196b60405190565b6102a290611b03565b611b73612634565b6102a26102a2611b8360006119bd565b6128a3565b6102a2611b6b565b611b98612634565b6102a26102a2612958565b6102a2611b90565b6102b060007f9016d09d72d40fdae2fd8ceac6b6234c7706214fd39c1cd1e609a0528c1993005b01611066565b69ffffffffffffffffffff8116610289565b905051906102a282611bd8565b905051906102a282610287565b919060a08382031261029057611c1a8184611bea565b92611c288260208301611bf7565b926102b0611c398460408501611bf7565b936080611c498260608701611bf7565b9401611bea565b611c5d6115f86000611066565b60a0611c6860405190565b633fabe5a360e21b815291829060049082905afa9081156116c8576102b091611c9991600091611cab575b506102ec565b611ca5620f42406102ec565b906113c9565b611ccd915060a03d60a011611cd6575b611cc581836106a5565b810190611c04565b50505090611c93565b503d611cbb565b9061105591611cea6125a1565b90611cfc610d07610d02336004610337565b611d09576102a291611ddb565b604051632a7a45a960e11b8152600490fd5b611d286102b06102b09290565b63ffffffff1690565b6102b06064611d1b565b6102b06102b06102b09263ffffffff1690565b916001600160a01b0360089290920291821b911b610d45565b9190611d786102b0610d669361032e565b908354611d4e565b80549190600160401b8310156106c65782611da39160016102a295018155610bb0565b90611d67565b6114576102a294611dd2606094989795611dc8608086019a6000870152565b602085019061051a565b15156040830152565b611de9610d0282600f6102f9565b611df7611145610498611098565b14611aed57611e096102b06002610d35565b341061208d57611e1c6115f86001611066565b91600092611e2f6110f56119d3866119bd565b146119f957611e53611e456111658460126102f9565b6106fb6111658560136102f9565b611e6661111e611e61611d31565b611d3b565b101561207b57611e7a6110e48360086102f9565b611e866110f5336102a4565b1480612073575b61206157611ea9611165611ea28460146102f9565b3390610337565b611eb561111e856102ec565b1415801561203c575b61202a57611ecf6115f86001611066565b9263f6326fb393803b1561029057611ef5948291611eec60405190565b96879260e01b90565b8252600490829034905af19384156116c8577f4af71b021e799c62c158bd54636ca8da2fa26115a21a2dc6efe486ec104fd15f9461200d575b50508015611fce57611f61611f4360016102ec565b611f5b611f518560126102f9565b916106fb83610d35565b90610d4f565b611f80611f6f8360106102f9565b611f5b611f7b82610d35565b340190565b611f98611f91611ea28460146102f9565b3490610d4f565b611fb0611fa96102b08460166102f9565b3390611d80565b611fc9611fbc60405190565b9283923491339085611da9565b0390a1565b611fe9611fdb60016102ec565b611f5b611f518560136102f9565b611ff7611f6f8360116102f9565b612008611f91611ea28460156102f9565b611f98565b8161202392903d106116c1576116b281836106a5565b3880611f2e565b604051631e1a6b8d60e01b8152600490fd5b5061204e611165611ea28460156102f9565b61205a61111e856102ec565b1415611ebe565b6040516368b2c32960e11b8152600490fd5b508015611e8d565b60405163844bc54960e01b8152600490fd5b6040516355ce598160e01b8152600490fd5b906102a291611cdd565b6102a2906120b5612634565b906004916120c6610d028285610337565b612107576115f860016118fd836120dd9596610337565b7f3d7790f77476184ac44f422508d42f9e39bd55eb41f3ba302a3d68bc71311a9961196b60405190565b610d2a8361211460405190565b634a4c501760e01b8152918291820190565b6102a2906120a9565b906110559161213c6125a1565b9061214e610d07610d02336004610337565b611d0957506102a290612168611165611ea28360146102f9565b61217561111e60006102ec565b149081612184575b5061202a57565b6121979150611ea26111659160156102f9565b6121a461111e60006102ec565b143861217d565b906102a29161212f565b906121c4611317610af8845490565b9060005b8181106121d55750505090565b9091926121f261134e6001926121ea87610d35565b815260200190565b9291016121c8565b906102b0916121b5565b906102a26113819261221560405190565b938480926121fa565b6102b090612204565b61223e6102b091612236606090565b506005610337565b61221e565b6102b09060401c610498565b6102b09054612243565b6102b0905b6001600160401b031690565b6102b09054612259565b61225e6102b06102b09290565b906001600160401b0390610d45565b61225e6102b06102b0926001600160401b031690565b906122b66102b0610d6692612290565b8254612281565b9060ff60401b9060401b610d45565b906122dc6102b0610d6692151590565b82546122bd565b61037590612274565b6020810192916102a291906122e3565b907ff0c57e16840df040f15088dc2f81fe391c3923bec73e23a9662efc9c229c6a00918261233561232f610d078361224f565b9161226a565b9160009361234285612274565b6001600160401b038516148061243a575b60019461236f61236287612274565b916001600160401b031690565b149081612416575b155b908161240d575b506123fb576123a991836123a08761239788612274565b990198896122a6565b6123ec57612465565b6123b257505050565b6123e0611fc9927fc7f505b2f371ae2175ee4913f4499e1f2633a7b5936321eed1cdaeb6115181d2946122cc565b604051918291826122ec565b6123f685886122cc565b612465565b60405163f92ee8a960e01b8152600490fd5b15905038612380565b90506123796124243061032e565b3b61243161111e896102ec565b14919050612377565b5082612353565b610375906102ec565b9160206102a292949361145760408201966000830190612441565b6000612470816102ec565b821461208d576124d96124d37feb08af283bfdcd5240048fa1c4f59daf37447a1d363818cd09d991de75b68a64946124a6612973565b6124ae61298e565b6124b7336129ab565b6124c03361258e565b6124c86129bc565b6115f8856002610d4f565b82610d79565b6124e5610f1b826102ec565b611fc96124f160405190565b9283928361244a565b906102a2916122fc565b6102a290612510612634565b61251a60006102ec565b811461208d576102a2906002610d4f565b6102a290612504565b6102a290612540612634565b61254a60006119bd565b612553816102a4565b61255c836102a4565b1461256b57506102a2906128a3565b610d2a9061257860405190565b631e4fbdf760e01b815291829160048301610523565b6102a290612534565b6102b060026102ec565b7f9b779b17422d0df92223018b32b4d1fa46e071723d6817e2486d003becc55f006125cb81610d35565b6125d3612597565b9081146125e3576102a291610d4f565b604051633ee5aeb560e01b8152600490fd5b6102b060016102ec565b6102a27f9b779b17422d0df92223018b32b4d1fa46e071723d6817e2486d003becc55f00600061262d6125f5565b9101610d4f565b61263c611bab565b339061264a6110f5836102a4565b036126525750565b610d2a9061265f60405190565b63118cdaa760e01b815291829160048301610523565b61267d6129c4565b6102a261269460008061268e61287f565b016118c7565b7f5db9ee0a495bf2e6ff9c91a7834c1ba4fdd244a5e8aa4e537bd38aeae4b073aa611fc93361054e565b6102a2612675565b6126cf3061032e565b7f0000000000000000000000000000000000000000000000000000000000000000906126fd6110f5836102a4565b1490811561271f575b5061270d57565b60405163703e46dd60e11b8152600490fd5b90506127356110f561272f6129e7565b926102a4565b141538612706565b506102a2612634565b6102a29061273d565b90602082820312610290576102b091611bf7565b906127706115f88361032e565b90602061277c60405190565b6352d1902d60e01b815292839060049082905afa60009281612812575b506127cc57505060016127a95750565b610d2a906127b660405190565b634c9c8ce360e01b815291829160048301610523565b9092916127da6102b061187a565b84036127eb576102a29293506129f7565b610d2a846127f860405190565b632a87526960e21b81529182916004830190815260200190565b61283591935060203d60201161283c575b61282d81836106a5565b81019061274f565b9138612799565b503d612823565b61284c3061032e565b6128786110f57f00000000000000000000000000000000000000000000000000000000000000006102a4565b0361270d57565b7fcd5ed15c6e187e77e9aee88184c21f4f2182ab5827cb3b7e07fbedcd63f0330090565b6128e36128dd7f9016d09d72d40fdae2fd8ceac6b6234c7706214fd39c1cd1e609a0528c1993006115f8846128d783611066565b92610d79565b9161032e565b907f8be0079c531659141344cd1fd0a4f28419497f9722a3daafe3b4186f6b6457e061290e60405190565b600090a3565b61291c612a63565b6102a261292e6001600061268e61287f565b7f62e78cea01bee320cd4e420270b5ea74000d11b0c9f74754ebdbfc544b05a258611fc93361054e565b6102a2612914565b612968612a83565b6102a26102a2612aae565b6102a2612960565b612983612a83565b6102a26102a2612acf565b6102a261297b565b6102a2906129a2612a83565b6102a290612ae3565b6102a290612996565b6102a2612a83565b6102a26129b4565b6129cf610d0761198c565b6129d557565b604051638dfc202b60e01b8152600490fd5b6102b06000611bd26102b061187a565b90612a0182612aec565b612a0a8261032e565b7fbc7cd75a20ee27fd9adebab32041f755214dbc6bffa90cc0225b39da2e5c2d3b612a3460405190565b600090a28051612a4761111e60006102ec565b1115612a5957612a5691612b5a565b50565b50506102a2612b17565b612a6b61198c565b612a7157565b60405163d93c066560e01b8152600490fd5b612a8e610d07612b81565b612a9457565b604051631afcd79f60e31b8152600490fd5b611055612a83565b6102a2612aa6565b612abe612a83565b6102a26102a260008061268e61287f565b6102a2612ab6565b6102a290612540612a83565b6102a290612ad7565b803b612afb61111e60006102ec565b146127a9576102a2906000612b116102b061187a565b01610d79565b612b2160006102ec565b3411612b2957565b60405163b398979f60e01b8152600490fd5b3d15612b5557612b4a3d610997565b903d6000602084013e565b606090565b6000806102b093612b69606090565b50602081519101845af4612b7b612b3b565b91612baa565b6102b07ff0c57e16840df040f15088dc2f81fe391c3923bec73e23a9662efc9c229c6a0061224f565b90612bb55750612c0c565b8151612bc461111e60006102ec565b1480612bf6575b612bd3575090565b610d2a90612be060405190565b639996b31560e01b815291829160048301610523565b50803b612c0661111e60006102ec565b14612bcb565b8051612c1b61111e60006102ec565b1115612c2957805190602001fd5b60405163d6bda27560e01b8152600490fdfea26469706673582212203c6062fdae456a4958fc6107477f3f24ccc882eeb5da963a86346e0eabaacdbb64736f6c63430008160033",
    "linkReferences": {},
    "deployedLinkReferences": {}
}